:020000040800F2
:1000000000000220712A00081506000817060008E3
:10001000190600081B0600081D0600080000000065
:100020000000000000000000000000001F060008A3
:10003000210600080000000023060008250600082D
:10004000C12A0008C12A0008C12A0008C12A0008E4
:10005000C12A0008C12A0008C12A0008C12A0008D4
:10006000C12A0008C12A0008C12A0008C12A0008C4
:10007000C12A0008C12A0008C12A0008C12A0008B4
:10008000C12A0008C12A0008C12A0008C12A0008A4
:10009000C12A0008C12A0008C12A0008C12A000894
:1000A000C12A0008C12A0008C12A0008C12A000884
:1000B000C12A0008C12A0008C12A0008C12A000874
:1000C000C12A0008C12A0008C12A0008C12A000864
:1000D000C12A0008C12A0008C12A0008C12A000854
:1000E000C12A0008C12A000800000000C12A000837
:1000F000C12A0008C12A0008C12A0008C12A000834
:10010000C12A0008C12A0008C12A0008C12A000823
:10011000C12A0008C12A0008C12A0008C12A000813
:10012000C12A0008C12A0008C12A0008C12A000803
:10013000C12A0008C12A0008C12A0008C12A0008F3
:1001400000000000000000000000000000000000AF
:10015000C12A0008C12A0008C12A0008C12A0008D3
:10016000C12A0008C12A0008C12A0008C12A0008C3
:10017000C12A0008C12A0008C12A000800000000A6
:10018000C12A0008C12A0008C12A0008C12A0008A3
:10019000C12A0008C12A0008C12A0008C12A000893
:1001A000C12A0008C12A0008C12A0008C12A000883
:1001B000C12A0008C12A0008C12A0008C12A000873
:1001C000C12A0008C12A0008C12A0008C12A000863
:1001D000C12A0008C12A0008C12A0008C12A000853
:1001E000C12A0008C12A0008C12A0008C12A000843
:1001F000C12A0008C12A0008C12A0008C12A000833
:10020000C12A0008C12A0008C12A0008C12A000822
:10021000C12A0008C12A0008C12A0008C12A000812
:10022000C12A0008C12A0008C12A000800000000F5
:10023000C12A0008C12A000800000000C12A0008E5
:10024000C12A0008C12A0008C12A0008C12A0008E2
:10025000C12A0008C12A0008C12A0008C12A0008D2
:10026000C12A0008C12A0008C12A0008C12A0008C2
:10027000C12A0008C12A0008C12A000800000000A5
:10028000C12A000800000000C12A00080000000088
:0802900000000000C12A000873
:1002980010B5054C227832B9044B13B10448AFF3BA
:1002A80000800123237010BD0C0000200000000016
:1002B8000C2B000808B5034B1BB103490348AFF3E7
:1002C800008008BD00000000100000200C2B000872
:1002D800FEE7000000B5CDB03D4BDA6822F004021D
:1002E800DA60002201929A6922F4404242F4804284
:1002F8009A619B6903F440430193019B344B9B69CA
:1003080013F4005FFAD0334A936A23F0030393622D
:100318000222399201233C9310233D9342920023F9
:10032800439304214491182045904691479148925F
:100338000C2249924A934B9339A800F0CBFF00282E
:100348003AD13F23319303233293002333933493D9
:100358003593369337933893012131A801F066FB22
:1003680070BB4FF400230293042303930A230493DE
:1003780003230593022306930793C023089320239E
:10038800099300230A932A9302A801F031FDD8B9F2
:10039800114B1868114BA3FB0030800900F0D4FE04
:1003A800042000F0E7FE002211464FF0FF3000F075
:1003B80099FE4DB05DF804FBA3210948FFF788FFBB
:1003C800B5210748FFF784FFC4210548FFF780FFE0
:1003D800004802580044025808000020D34D62101B
:1003E800242B000808B502F0D5FAFFF773FF00F0D8
:1003F8000FF800F04BF800F0BBF88021034802F03A
:100408009EFA4FF4FA7002F0E7FAF6E70004025891
:1004180010B588B01B4BD3F8E02042F00102C3F8B6
:10042800E020D3F8E02002F001020092009AD3F80D
:10043800E02042F02002C3F8E020D3F8E02002F0E8
:1004480020020192019AD3F8E02042F00202C3F898
:10045800E020D3F8E03003F002030293029B0A4C39
:1004680000228021204602F065FA802303930123AD
:10047800049300230593069303A9204602F064F928
:1004880008B010BD004402580004025800B58BB0F3
:100498002048214B0360002343608360C36004222B
:1004A8000261037543750122826103770262426229
:1004B8008362C3620363436380F8382080F839306D
:1004C80000F0F4F8B8B90023079307A9114800F021
:1004D8006DFDA8B902230093012301930023029321
:1004E80003930493059369460A4800F05FFA60B9DC
:1004F8000BB05DF804FB4E210848FFF7E9FEE2E780
:1005080056210648FFF7E4FEE4E763210348FFF7B6
:10051800DFFEEDE72C00002000200240302B000811
:100528000268104B9A4200D0704700B587B00E4B56
:10053800D3F8D82042F02002C3F8D820D3F8D83016
:1005480003F020030093009B4FF4006301930323FF
:1005580002930023039301A9044802F0F5F807B0B9
:100568005DF804FB002002400044025800140258C1
:1005780000B58BB00E480F4B036000F010FE68B951
:1005880000220192029203920492059201A908485E
:1005980000F018FE38B90BB05DF804FB3D210648A1
:1005A800FFF796FEECE749210348FFF791FEF2E7D3
:1005B80090000020007400403C2B00080268104B9B
:1005C8009A4200D0704700B587B00E4BD3F8E820A8
:1005D80042F00052C3F8E820D3F8E83003F00053A3
:1005E8000093009B1023019303230293002303939A
:1005F80001A9054802F0A8F807B05DF804FB00BFA0
:100608000074004000440258000002587047FEE79A
:10061800FEE7FEE7FEE770477047704708B502F04F
:10062800C9F900F0B8FD08BD00B583B01E4BD3F87A
:10063800F42042F00202C3F8F420D3F8F43003F0B7
:1006480002030193019B032000F03AFD00221146AA
:100658006FF00B0000F046FD002211466FF00A0013
:1006680000F040FD002211466FF0090000F03AFD4D
:10067800002211466FF0040000F034FD00221146FC
:100688006FF0030000F02EFD002211466FF001000C
:1006980000F028FD002211464FF0FF3000F022FD47
:1006A80003B05DF804FB00BF0044025830B583B0C6
:1006B80000230193002800F065810446436D0BB3C5
:1006C80023689A6812F0005F03D09A6822F00052FB
:1006D8009A6023689A6812F0805F1AD19A6842F08B
:1006E80080529A60A84B1B68A84AA2FB0323DB0C24
:1006F80003EB83035A000192019B53B1019B013B19
:100708000193F9E7FFF70CFF0023A36584F8503045
:10071800D6E723689A6812F0805F3AD1626D42F09A
:1007280010026265A26D42F00102A2650120626DAD
:1007380012F0100F40F01F819A6812F0040F40F079
:100748001A81626D42F0020262659149914A9342B0
:1007580018BF8B421FD101F540719A6802F003025D
:10076800012A1AD08A4A93421CD08A4A934239D025
:10077800874B9B6803F00303012B54D00023002B05
:1007880061D1844B9B6803F00303012B54D00023F1
:100798005AE00020CBE78049DFE71A6812F0010F22
:1007A8005BD1DFE77B4B9B6803F00303012B09D088
:1007B8007A4B9B6803F00303012B0AD0002383F0D4
:1007C800010343E0734B1B6813F0010FF0D00123C2
:1007D800F5E7724B1B6813F0010F01D10023EEE718
:1007E8000123ECE76A4B9B6803F00303012B0AD053
:1007F8006A4B9B6803F00303012B0BD00023002BEB
:10080800BFD0012320E0624B1B6813F0010FEFD02B
:100818000123F4E7614B1B6813F0010F01D100239A
:10082800EDE70123EBE75A4B1B6813F0010F01D1E9
:100838000023A4E70123A2E7564B1B6813F0010F1E
:100848006CD1002300E0012383F001032BB18B68F6
:1008580023F47C13626813438B60637D4FF400526A
:1008680092FAA2F2B2FA82F29340226B1343A26880
:100878001A43217F4FF4803393FAA3F3B3FA83F337
:1008880001FA03F3134301294AD0626A012A03D00B
:10089800A16A09B10A4313432168CD68404A2A4036
:1008A8001343CB6023689A6812F00C0F27D1227D7E
:1008B8004FF4804191FAA1F1B1FA81F18A40E16ADD
:1008C8001143DD68374A2A400A43DA6094F8393020
:1008D800012B30D02268136923F0010313612268C9
:1008E800136923F07043616B0B43136194F838303C
:1008F800012B31D02268936823F480739360E368F6
:10090800012B2FD02268136B23F00F031363636D41
:1009180023F0030343F00103636531E0012393E708
:10092800226A013A4FF4602191FAA1F1B1FA81F1FA
:100938008A401343A9E721680A691B4B1340E56BFA
:10094800226C42EA0542656C2A43A56C2A4313438C
:1009580043F001030B61C2E72268936843F4807394
:100968009360CCE721680B6B23F00F03A269013A6F
:1009780013430B63CBE7636D43F0100363650120FA
:1009880003B030BD0120FBE70800002083DE1B43D5
:100998000020024000210240006302580060025813
:1009A80003C0F0FFFCBFFFFF1EF800FCF0B482B0EC
:1009B8000022019290F85020012A00F0EA820346B2
:1009C800012280F850200268906810F0040F40F06F
:1009D800D582D0690D680124AC402043D0614A68B3
:1009E800042A4FD81E68356B4FF4F86090FAA0F4CB
:1009F800B4FA84F404FB02F41F2707FA04F425EA86
:100A080004050C6890FAA0F0B0FA80F000FB02F23E
:100A180004FA02F22A4332631A68906810F00C0F45
:100A280040F0BD800868092840F28480966938241F
:100A380094FAA4F5B5FA85F50A3800FB05F50727F9
:100A480007FA05F526EA05068D6894FAA4F4B4FABF
:100A580084F404FB00F005FA00F030439061486923
:100A68001C68E268C2F38202520000FA02F20869C6
:100A78000138032800F23081DFE810F07500C20069
:100A8800E6000A01092A1BD81E68746B4FF4F86047
:100A980090FAA0F5B5FA85F5053A02FB05F51F278A
:100AA80007FA05F524EA05040D6890FAA0F0B0FAF3
:100AB80080F000FB02F205FA02F222437263ABE710
:100AC8000E2A1BD81E68B46B4FF4F86090FAA0F594
:100AD800B5FA85F50A3A02FB05F51F2707FA05F569
:100AE80024EA05040D6890FAA0F0B0FA80F000FB43
:100AF80002F205FA02F22243B2638DE71E68F56B33
:100B08004FF4F86090FAA0F4B4FA84F40F3A02FBB8
:100B180004F41F2707FA04F425EA04050C6890FA80
:100B2800A0F0B0FA80F000FB02F204FA02F22A43C5
:100B3800F26371E75669382494FAA4F5B5FA85F595
:100B480005FB00F5072707FA05F526EA05068D686F
:100B580094FAA4F4B4FA84F404FB00F005FA00F063
:100B6800304350617BE7256E05F0004508684FF07B
:100B7800F84696FAA6F6B6FA86F6B04002432A4335
:100B880022661868026922F400620C7E2243026120
:100B98004A7E7AB31868026E42F00042026618680C
:100BA800826802F00302012A00F0E380CA68B2F109
:100BB800804F00F0E580D0F8C0200D680124AC40DB
:100BC80022EA0402C0F8C0201A68AD4CAD4882423F
:100BD80018BFA24240F0158100F50070096812297B
:100BE80000F01181112900F03681132900F03881B5
:100BF8000020C8E11868026E22F000420266CEE7C3
:100C0800656E05F0004508684FF0F84696FAA6F6B6
:100C1800B6FA86F6B04002432A436266186802694B
:100C280022F480520C7E42EA440202614A7E2AB1D2
:100C38001868426E42F000424266B0E71868426E99
:100C480022F000424266AAE7A56E05F00045086852
:100C58004FF0F84696FAA6F6B6FA86F6B040024382
:100C68002A43A2661868026922F400520C7E42EAFE
:100C7800840202614A7E2AB11868826E42F00042FC
:100C880082668CE71868826E22F00042826686E7E8
:100C9800E56E05F0004508684FF0F84696FAA6F6A6
:100CA800B6FA86F6B04002432A43E266186802693B
:100CB80022F480420C7E42EAC40202614A7E2AB1D2
:100CC8001868C26E42F00042C26668E71868C26ED1
:100CD80022F00042C26662E7256E05F0F845086812
:100CE8004FF0F84292FAA2F2B2FA82F200FA02F255
:100CF800954203D1226E22F0004222661868456EA2
:100D080005F0F8450C684FF0F84292FAA2F2B2FAF0
:100D180082F204FA02F2954203D1426E22F00042B6
:100D280042661868856E05F0F8450C684FF0F84281
:100D380092FAA2F2B2FA82F204FA02F2954203D1CE
:100D4800826E22F0004282661868C56E05F0F8458A
:100D58000C684FF0F84292FAA2F2B2FA82F204FA60
:100D680002F295427FF41BAFC26E22F00042C266C7
:100D780015E7026812F0010F3FF418AF002002E1F6
:100D8800D0F8C0200D680124AC402243C0F8C02030
:100D98000A68082A1AD91E68B569382090FAA0F49A
:100DA800B4FA84F4093A02FB04F4072707FA04F4B6
:100DB80025EA04058C6890FAA0F0B0FA80F000FBF0
:100DC80002F204FA02F22A43B261FDE61E6875696E
:100DD800382090FAA0F4B4FA84F4013202FB04F447
:100DE800072707FA04F425EA04058C6890FAA0F0AE
:100DF800B0FA80F000FB02F204FA02F22A437261B0
:100E0800E2E62148EAE6846814F4000F7FF4EAAECB
:100E1800946804F00304012C28D0194CA24235D060
:100E2800184CA2424BD0164CA46804F00304012CC1
:100E380066D00024F4B9134CA46804F00304012C10
:100E480067D012296BD0112900F08380132900F094
:100E58008A80002097E0846814F0807FD8D0C4E6A8
:100E6800846814F4800FD3D000208CE0146814F048
:100E7800010FD2D05A6D42F020025A65012082E05B
:100E880000200240002102400063025804F58074EB
:100E9800A46804F00304012C0BD03F4CA46804F0B0
:100EA8000304012CCDD13C4C246814F0010FE1D18E
:100EB800C7E73A4C246814F0010FDBD1EDE7A4F53D
:100EC8008074A46804F00304012C09D0324CA4688F
:100ED80004F00304012C0AD00024002CCAD1AAE78C
:100EE8002F4C246814F0010FF0D00124F5E72A4CA8
:100EF800246814F0010F01D10024EEE70124ECE787
:100F0800274C246814F0010F01D1002492E7012432
:100F180090E7224C246814F0010FABD191E71E4CE6
:100F2800A24290D1826842F4000282601D4A12688F
:100F38001D49A1FB0212D20CC2EB0212D100019191
:100F480002E0019A013A0192019A002AF9D100209F
:100F580019E0114CA2427FF479AF826842F08072A6
:100F6800826000200FE00C498A4201D000200AE08C
:100F7800826842F480028260002004E05A6D42F0E8
:100F880020025A650120002283F8502002B0F0BCEC
:100F980070470220FAE700BF0060025800210240B3
:100FA800002002400800002083DE1B4390F85020F8
:100FB800012A7CD030B49AB00346012280F8502030
:100FC80002683C4882422BD000200190019858B317
:100FD800926812F0040F5FD1826812F0040F5BD19F
:100FE8000A68002A35D0344CA26822F440424D6881
:100FF8002A43A2601C68A26802F00302012A1CD0DE
:10100800826802F00302012A1DD02B4CA0682B4AEB
:1010180002400868896808430243A260002040E053
:1010280000F580700190D1E75A6D42F020025A65B0
:10103800002283F85020012036E0226812F0010FC8
:10104800DED000202DE0026812F0010FDDD0002074
:1010580027E019498A6822F440428A6019688A6838
:1010680002F00302012A0BD0826802F00302012A6F
:101078000CD011498868114A02408A60002010E0AB
:101088000A6812F0010FEFD000200AE0026812F09F
:10109800010FEED0002004E05A6D42F020025A659C
:1010A8000120002283F850201AB030BC704702207B
:1010B800704700BF0020024000230240E0F0FFFF1D
:1010C8000649CB6823F4E0631B041B0C000200F400
:1010D800E0600343024A1A43CA60704700ED00E02B
:1010E8000000FA0530B4154BDB68C3F30223C3F1E3
:1010F8000704042C28BF04241D1D062D01D9033B19
:1011080000E000234FF0FF3505FA04F421EA04015A
:10111800994005FA03F322EA03031943002805DB83
:101128000901C9B2064B195430BC704700F00F00D2
:101138000901C9B2034B1954F6E700BF00ED00E0FE
:1011480000E400E014ED00E00138B0F1807F0AD23D
:10115800064B5860064AF02182F823100020986058
:1011680007221A6070470120704700BF10E000E0B6
:1011780000ED00E0042805D0054A136823F00403B5
:1011880013607047024A136843F004031360704702
:1011980010E000E0704708B5FFF7FCFF08BD70B12C
:1011A80010B50446037933B102232371002020616E
:1011B8000123237110BD4371FFF700FAF4E7012002
:1011C80070470000F8B54379012B7FD015460E46CD
:1011D800044601234371022303710B68042B30D0AA
:1011E8003369012B67D02168CB6B0722AA4023EA19
:1011F80002023368B0680343F0680343AB4013430B
:10120800CB6321680B684FF48042AA4023EA0203AB
:101218000B6021680B6840F6FE72AA4023EA0202BE
:101228007368AB4013430B6021680B68C02202FA55
:1012380005F523EA05050D6001232371002060717F
:10124800F8BD72B123685B6B002B25DA01F0BEFB99
:101258000128F7D9236943F008032361032020718B
:10126800EEE701F0B3FB074623685A6B184B1340AF
:101278005BB101F0ABFBC01B0128F5D9236943F032
:101288000803236103202071DAE7012001F0A4FBA1
:101298002368B2691A6405E0012001F09DFB236808
:1012A800B2695A64F3692268AB409364336A22686E
:1012B800AB40D36494E721688B6B1F22AA4023EAD2
:1012C80002027369AB4013438B638CE70220B7E7D4
:1012D8000080002038B50446036813F0010F2AD0B7
:1012E800AC4B1B6903F03803102B1BD0A94B1B69AF
:1012F80003F03803182B0FD06368B3F5803F44D050
:10130800002B58D1A34B1A6822F480321A601A684D
:1013180022F480221A603DE09E4B9B6A03F003038F
:10132800022BE9D19B4B1B6813F4003F03D0636881
:10133800002B00F08382236813F0020F00F09480E2
:10134800944B1B6913F0380F60D0924B1B6903F064
:101358003803182B55D0E368002B00F0BD808D4969
:101368000A6822F0190213430B6001F02FFB0546AF
:10137800884B1B6813F0040F40F09E8001F026FB99
:10138800401B0228F4D903205FE2824A136843F421
:101398008033136063682BB301F018FB05467D4B5F
:1013A8001B6813F4003FC6D101F010FB401B6428F2
:1013B800F5D9032049E2B3F5A02F09D0754B1A6877
:1013C80022F480321A601A6822F480221A60E1E757
:1013D800704B1A6842F480221A601A6842F480320C
:1013E8001A60D7E701F0F2FA05466A4B1B6813F456
:1013F800003FA0D001F0EAFA401B6428F5D9032089
:1014080023E2644B9B6A13F0030FA4D1614B1B6862
:1014180013F0040F03D0E368002B00F011825D4A3B
:10142800136823F01903E1680B43136001F0CEFA47
:101438000546584B1B6813F0040F06D101F0C6FA95
:10144800401B0228F5D90320FFE15248436823F4E2
:101458007C3321694FF47C3292FAA2F2B2FA82F21A
:1014680001FA02F213434360236813F0100F65D0AA
:10147800484B1B6903F03803082B47D0454B1B69C1
:1014880003F03803182B3BD0E369002B00F084806D
:10149800404A136843F08003136001F097FA054649
:1014A8003C4B1B6813F4807F63D101F08FFA401B1B
:1014B8000228F5D90320C8E13648436823F47C3371
:1014C80021694FF47C3292FAA2F2B2FA82F201FA5E
:1014D80002F213434360C7E72E4A136823F001035F
:1014E800136001F073FA05462A4B1B6813F0040FCA
:1014F800BAD001F06BFA401B0228F5D90320A4E109
:10150800244B9B6A03F00303012BBDD1214B1B68BD
:1015180013F4807F03D0E369802B40F093811D484A
:10152800436823F0F843216A4FF0F84292FAA2F296
:10153800B2FA82F201FA02F213434360236813F00D
:10154800080F51D06369002B3AD0124A536F43F009
:101558000103536701F03AFA05460E4B5B6F13F02F
:10156800020F41D101F032FA401B0228F5D90320BD
:101578006BE10848436823F0F843216A4FF0F842CA
:1015880092FAA2F2B2FA82F201FA02F2134343602B
:10159800D4E700BF00440258AD4A136823F0800323
:1015A800136001F013FA0546A94B1B6813F4807FFA
:1015B800C4D001F00BFA401B0228F5D9032044E1FE
:1015C800A34A536F23F00103536701F0FFF905465F
:1015D8009F4B5B6F13F0020F06D001F0F7F9401B29
:1015E8000228F5D9032030E1236813F0200F29D011
:1015F800A3699BB1964A136843F48053136001F0C2
:10160800E5F90546924B1B6813F4005F1AD101F007
:10161800DDF9401B0228F5D9032016E18C4A13682E
:1016280023F48053136001F0D1F90546884B1B68F9
:1016380013F4005F06D001F0C9F9401B0228F5D960
:10164800032002E1236813F0040F21D1636A002B01
:1016580000F0FA807E4A126902F03802182A00F077
:10166800F580022B75D07A4A136823F080731360D3
:1016780001F0ACF90446764B1B6813F0007F00F0CC
:10168800DB8001F0A3F9001B0228F4D90320DCE079
:10169800704A136843F48073136001F097F90546A4
:1016A8006C4B1B6813F4807F06D101F08FF9401B47
:1016B8006428F5D90320C8E0A368012B0AD00BBB26
:1016C800634B1A6F22F001021A671A6F22F00402A4
:1016D8001A6704E05E4A136F43F001031367A368B7
:1016E80033B301F073F90546594B1B6F13F0020F22
:1016F800ACD101F06BF9401B41F288339842F3D921
:101708000320A2E0052B09D0514B1A6F22F00102E9
:101718001A671A6F22F004021A67E0E74C4B1A6F37
:1017280042F004021A671A6F42F001021A67D6E7FC
:1017380001F04CF90546464B1B6F13F0020F85D09C
:1017480001F044F9401B41F288339842F3D9032051
:101758007BE03F4A136823F08073136001F036F989
:1017680005463B4B1B6813F0007F06D001F02EF9AD
:10177800401B0228F5D9032067E0354B996A364AA1
:101788000A40A16AE06A41EA00110A439A62226BA0
:10179800013AC2F30802616B0139490289B20A436E
:1017A800A16B0139090401F4FE010A43E16B013917
:1017B800090601F0FE410A431A63596B274A0A4099
:1017C800A06C4FF6F87191FAA1F1B1FA81F100FA23
:1017D80001F10A435A63DA6A22F00C02216C0A43C7
:1017E800DA62DA6A22F00202616C0A43DA62DA6AC1
:1017F80042F48032DA62DA6A42F40032DA62DA6A91
:1018080042F48022DA62DA6A42F00102DA621A6885
:1018180042F080721A6001F0D9F804460C4B1B683C
:1018280013F0007F06D101F0D1F8001B0228F5D98A
:1018380003200AE0002008E0002006E0012004E080
:10184800012002E0012000E0002038BD0120FCE773
:1018580000440258004802580CFCFFFF0700FFFF35
:101868006D4B1B6903F03803102B00F0D180182B47
:101878000FD00BB169487047674B1B6813F0200FF6
:1018880000F0C880644B1B68C3F3C1036448D840A8
:10189800704770B4604DAC6A04F00304AE6AC6F3D6
:1018A8000516EB6A03F001036D6BC5F3CC0503FB6A
:1018B80005F307EE903AF8EE677A012C60D0F4B1A0
:1018C800022C00F08980554BB3FBF6F307EE103A73
:1018D800B8EE477A504B1B6BC3F30803DFED516A30
:1018E80067EEA67A06EE903AF8EE666A76EEA77A82
:1018F800F7EE006A77EEA67A27EE277A5BE0464B8A
:101908001B6813F0200F1FD0434A1368C3F3C103A9
:101918004348D840B0FBF6F307EE103AB8EE477AE2
:10192800136BC3F30803DFED3F6A67EEA67A06EE92
:10193800903AF8EE666A76EEA77AF7EE006A77EEE6
:10194800A67A27EE277A36E03548B0FBF6F307EE9D
:10195800103AB8EE477A304B1B6BC3F30803DFED40
:10196800316A67EEA67A06EE903AF8EE666A76EE87
:10197800A77AF7EE006A77EEA67A27EE277A1AE0BA
:101988002649B1FBF6F307EE103AB8EE477A224B38
:101998001B6BC3F30803DFED236A67EEA67A06EE36
:1019A800903AF8EE666A76EEA77AF7EE006A77EE76
:1019B800A67A27EE277A184B1B6BC3F3462301330D
:1019C80007EE903AF8EE676AC7EE267AFCEEE77AF9
:1019D80017EE900A70BC7047134AB2FBF6F307EE95
:1019E800103AB8EE477A0C4B1B6BC3F30803DFEDD4
:1019F8000D6A67EEA67A06EE903AF8EE666A76EE1B
:101A0800A77AF7EE006A77EEA67A27EE277AD2E76A
:101A180005487047024870470044025800093D00D5
:101A28000090D0030000003900127A00784B1B6840
:101A380003F007038B420BD2754A136823F00703A0
:101A48000B431360136803F007038B4240F0D980FF
:101A580070B5036813F0020F06D06E4A936923F03D
:101A68000F03C468234393610D460446036813F0CB
:101A7800010F72D0674A936923F4706381680B433E
:101A880093614368022B0AD0032B2BD0012B30D053
:101A9800604A126812F0040F06D10120B0E0126803
:101AA80012F4003F00F0AF805A490A6922F0070299
:101AB80013430B6100F08AFF06466368022B1FD0B0
:101AC800032B2CD0012B39D0524B1B6913F0380F44
:101AD80043D000F07BFF801B41F288339842F3D952
:101AE80003208DE04B4A126812F0007FDCD1012000
:101AF80086E0484A126812F4807FD5D101207FE041
:101B0800444B1B6903F03803102B26D000F05EFF0E
:101B1800801B41F288339842F2D9032070E03D4B94
:101B28001B6903F03803182B17D000F04FFF801BF8
:101B380041F288339842F2D9032061E0354B1B69A2
:101B480003F03803082B08D000F040FF801B41F257
:101B580088339842F2D9032052E02D4B1B6803F0DA
:101B68000703AB420AD92A4A136823F007032B4319
:101B78001360136803F00703AB4246D1236813F0E0
:101B8800040F06D0234A936923F0700321690B439D
:101B98009361236813F0080F06D01E4AD36923F017
:101BA800700361690B43D361236813F0100F06D0EB
:101BB800184AD36923F4E063A1690B43D36123680E
:101BC80013F0200F06D0134A136A23F07003E1695B
:101BD8000B431362FFF744FE0E4B9B6903F47063DB
:101BE8004FF4807292FAA2F2B2FA82F2D3400A4A11
:101BF800D35CD840094B1860002000F0A5FE0020F7
:101C080070BD012070470120FAE70120F8E700BF06
:101C18000020005200440258482B00080800002009
:101C2800384B9B6A03F00303032B69D070B50E464B
:101C38000546344A136823F08063136000F0C6FE3B
:101C48000446304B1B6813F0006F06D000F0BEFE50
:101C5800001B0228F5D9032070BD2A4A936A23F491
:101C68007C33296843EA013393626B68013BC3F311
:101C78000803A9680139490289B20B43E9680139A7
:101C8800090401F4FE010B4329690139090601F031
:101C9800FE410B439363D36A23F0C00369690B4386
:101CA800D362D36A23F02003A9690B43D362BEB978
:101CB800D36A43F40023D362124A136843F0806363
:101CC800136000F083FE04460E4B1B6813F0006F90
:101CD80014D100F07BFE001B0228F5D90320BBE7D6
:101CE800012E05D0074AD36A43F40013D362E3E711
:101CF800044AD36A43F48013D362DDE70020ABE7DC
:101D08000120704700440258384B9B6A03F00303D4
:101D1800032B69D070B50E460546344A136823F084
:101D28008053136000F052FE0446304B1B6813F0DA
:101D3800005F06D000F04AFE001B0228F5D90320F8
:101D480070BD2A4A936A23F07C73296843EA0153D9
:101D580093626B68013BC3F30803A9680139490220
:101D680089B20B43E9680139090401F4FE010B4308
:101D780029690139090601F0FE410B431364D36A4E
:101D880023F4406369690B43D362D36A23F4007375
:101D9800A9690B43D362BEB9D36A43F48003D36203
:101DA800124A136843F08053136000F00FFE044694
:101DB8000E4B1B6813F0005F14D100F007FE001BE8
:101DC8000228F5D90320BBE7012E05D0074AD36ABC
:101DD80043F08073D362E3E7044AD36A43F4000311
:101DE800D362DDE70020ABE70120704700440258CA
:101DF800F8B50446036813F0006F31D0436EB3F5AD
:101E0800801F1ED00FD9B3F5001F23D0B3F5401F94
:101E180014D10026A84A136D23F44013616E0B43B6
:101E2800136500251EE033B9A34AD36A43F400338F
:101E3800D3620026EEE701252E4613E001252E4643
:101E480010E002210430FFF7EBFE0646002EE1D039
:101E5800354607E002212430FFF756FF0646F5E72E
:101E680000252E46236813F4807F25D0636D042B4C
:101E78001FD8DFE803F00311170808008E4AD36A59
:101E880043F40033D362AEB98B4A136D23F00703D2
:101E9800616D0B4313650FE00021201DFFF7C0FEA5
:101EA8000646F0E7002104F12400FFF72DFF06465F
:101EB800E9E701263543EDB2236813F4007F16D015
:101EC800A36D802B37D00AD833B3402B05D100211E
:101ED800201DFFF7A5FE064623E0012605E0C02BDE
:101EE8001FD0B3F5807F1CD001263543EDB223689F
:101EF80013F4806F31D0D4F8A430B3F5800F51D0EB
:101F080022D8002B3ED0B3F5001F1BD10021201D85
:101F1800FFF786FE06463AE0674AD36A43F4003381
:101F2800D362002EE1D1644A136D23F4E073A16DEE
:101F38000B431365DBE7002104F12400FFF7E4FEFF
:101F48000646EEE7012606E0B3F5C00F1FD0B3F54D
:101F5800000F1CD001263543EDB2236813F4006F3F
:101F680032D0D4F8A830B3F1007F4BD023D8002B5F
:101F780038D0B3F1807F1CD10021201DFFF750FE1F
:101F8800064634E04C4AD36A43F40033D362002E49
:101F9800E1D1494A936D23F46003D4F8A4100B43AC
:101FA8009365DAE7002104F12400FFF7ADFE064649
:101FB800EDE7012606E0B3F1407F18D0B3F1806F5A
:101FC80015D001263543EDB2236813F0007F24D0E5
:101FD800A36C102B35D01CD9202B41D0302B35D0F9
:101FE800012618E0344AD36A43F40033D362002E42
:101FF800E8D1314A936D23F0E063D4F8A8100B437D
:102008009365E1E7002104F12400FFF77DFE064611
:10201800EDE7DBB101263543EDB2236813F4805FA9
:102028002FD0E36DB3F5005F57D021D8002B45D0F2
:10203800B3F5805F1AD10021201DFFF7F1FD064698
:1020480041E01D4AD36A43F40033D362002EE2D143
:10205800194AD36C23F03003A16C0B43D364DCE73B
:102068000221201DFFF7DCFD0646EFE7012606E00A
:10207800B3F5405F27D0B3F5804F24D00126354310
:10208800EDB2236813F4005F3CD0236EB3F5003F34
:1020980055D02BD83BB1B3F5803F25D10121201D68
:1020A800FFF7BEFD06465EBB034A136D23F4E0232B
:1020B800216E0B43136525E000440258964AD36A03
:1020C80043F40033D362002ED9D1934A136D23F41D
:1020D800E043E16D0B431365D3E7002104F12400CD
:1020E800FFF712FE0646EEE7012609E0B3F5802F5A
:1020F800D9D0B3F5A02FD6D0B3F5403FD3D0012621
:102108003543EDB2236813F4804F2DD0D4F8AC30AA
:10211800B3F1005F42D01BD83BB1B3F1805F15D15A
:102128000121201DFFF77CFD0646DEB97A4A936D32
:1021380023F0E043D4F8AC100B43936514E001217D
:1021480004F12400FFF7E0FD0646ACE7012609E0AC
:10215800B3F1804FE9D0B3F1A04FE6D0B3F1405FBF
:10216800E3D001263543EDB2236813F4004F0AD0BB
:10217800E36EB3F1805F18D0B3F1005F24D0CBB128
:1021880001263543EDB2236813F0807F39D0636CA4
:10219800032B33D8DFE803F0231E2C23012104F19D
:1021A8002400FFF7B1FD0646BFE75B4AD36A43F454
:1021B8000033D362002EE4D1574A136D23F0405305
:1021C800E16E0B431365DEE70121201DFFF728FDB3
:1021D8000646EFE7504AD36A43F40033D36276B930
:1021E8004D4AD36C23F00303616C0B43D36408E0BE
:1021F8000221201DFFF714FD0646F0E701263543AE
:10220800EDB2236813F4800F1FD1236813F0010F78
:1022180000F0A080A36F282B00F29980DFE803F07C
:10222800879797979797979782979797979797975B
:10223800909797979797979787979797979797973D
:1022480087979797979797978700344A136843F427
:102258008073136000F0BAFB0746304B1B6813F419
:10226800807F05D100F0B2FBC01B6428F5D9032696
:10227800002E4DD1284B1B6FD4F8B020534013F4D7
:10228800407F0CD0244B1A6F22F44072196F41F42E
:1022980080311967196F21F4803119671A67D4F8EA
:1022A800B030B3F5807F15D07EBBD4F8B03003F4DE
:1022B8004072B2F5407F1ED0174A136923F47C534D
:1022C800136115490B6FD4F8B020C2F30B02134306
:1022D8000B679AE700F07AFB07460F4B1B6F13F06A
:1022E800020FE1D100F072FBC01B41F28833984223
:1022F800F3D90326D8E70848026922F47C52084932
:1023080001EA131313430361DBE73543EDB27CE7BE
:102318003543EDB279E700BF00440258004802583F
:10232800CFFFFF000121201DFFF77AFC06467EB98A
:10233800AC4A536D23F03803A16F0B43536509E092
:10234800012104F12400FFF7DFFC0646EFE7012630
:102358003543EDB2236813F0020F1FD0636F052BCE
:1023680019D8DFE803F00803110808080121201D27
:10237800FFF756FC06467EB99A4A536D23F00703C9
:10238800616F0B43536509E0012104F12400FFF755
:10239800BBFC0646EFE701263543EDB2236813F090
:1023A800040F21D0D4F89030052B1AD8DFE803F0B9
:1023B8000803120808080121201DFFF731FC064612
:1023C80086B9884A936D23F00703D4F890100B431D
:1023D800936509E0012104F12400FFF795FC064606
:1023E800EEE701263543EDB2236813F0200F26D01F
:1023F800D4F88C30B3F1005F3ED014D83BB1B3F1C0
:10240800805F0ED10021201DFFF70AFC0646A6B901
:10241800744A536D23F0E043D4F88C100B43536592
:102428000DE0012609E0B3F1804FF0D0B3F1A04FE1
:10243800EDD0B3F1405FEAD001263543EDB2236811
:1024480013F0400F2DD0D4F89830B3F5006F46D074
:102458001BD83BB1B3F5806F15D10021201DFFF7C4
:10246800DFFB0646DEB95F4A936D23F4E053D4F8E8
:1024780098100B43936514E0022104F12400FFF740
:1024880043FC0646C3E7012609E0B3F5805FE9D0BF
:10249800B3F5A05FE6D0B3F5406FE3D0012635432E
:1024A800EDB2236813F0800F2ED0D4F89C30B3F52A
:1024B800804F00F08F801BD83BB1B3F5005F15D17A
:1024C8000021201DFFF7ACFB0646DEB9454A936D97
:1024D80023F46043D4F89C100B43936514E0022165
:1024E80004F12400FFF710FC0646BBE7012609E0CB
:1024F800B3F5004FE9D0B3F5204FE6D0B3F5C04FA0
:10250800E3D001263543EDB2236813F0080F0AD053
:10251800D4F88030B3F5805F66D032494A6D22F432
:10252800405213434B65236813F0100F0AD0D4F8B8
:102538009430B3F5807F5FD02A498A6D22F44072C7
:1025480013438B65236813F4002F0CD0D4F8A03004
:10255800B3F5803F68D0B3F5003F5AD0002B53D075
:1025680001263543EDB2236813F4802F0DD0D4F83B
:102578008430B3F5001F6ED0B3F5401F60D0B3F5BB
:10258800801F58D001263543EDB2236813F4803FED
:1025980008D0E36C002B65D0B3F5803F71D00126DD
:1025A8003543EDB2236813F0005F70D1236813F44C
:1025B800003F79D0E36FB3F5807F00F0AC806ED92F
:1025C800B3F5007F00F0AC80B3F5407F00F0A88041
:1025D800012667E0022104F12400FFF795FB064677
:1025E80073E700BF00440258022104F12400FFF7FA
:1025F8008BFB0543EDB296E7022104F12400FFF7B7
:1026080083FB0543EDB29DE70021201DFFF708FB82
:102618000646002EA5D14B4A936D23F44033D4F8D7
:10262800A0100B4393659EE7022104F12400FFF7F5
:102638006BFB0646EDE7434AD36A43F40033D362A3
:10264800002EA0D13F4A536D23F44013D4F88410D0
:102658000B43536599E7012104F12400FFF754FB6C
:102668000646EDE7374AD36A43F40033D362002EB7
:1026780096D1344AD36C23F48033E16C0B43D36492
:1026880090E70221201DFFF7CBFA0646EFE702216B
:1026980004F12400FFF738FB0543EDB286E7002B71
:1026A8003ED001263543EDB2236813F4801F06D0CF
:1026B800244A136D23F00043216F0B4313652368ED
:1026C80013F0805F07D01F4A136923F48043D4F8BE
:1026D800B4100B431361236813F4001F06D0194A82
:1026E800136D23F08073A16E0B431365236813F0F9
:1026F800804F09D0134B1A6922F400421A611A69F3
:10270800D4F8B8100A431A612368002B12DB05B10C
:1027180001252846F8BD0B4AD36A43F40033D36237
:10272800002EBFD1074A536D23F44073E16F0B436A
:102738005365B9E7034AD36C23F04053216D0B432B
:10274800D364E4E70044025800230F2B00F2E98029
:10275800F0B482B03DE0092200E00022B2403A43E2
:102768000234704E46F824206F4A1468EA4302EA9D
:1027780004064F6817F4803F01D045EA04066A4C06
:102788002660666802EA06044F6817F4003F01D025
:1027980045EA0604644E74604FF0B044246802EAC7
:1027A80004064F6817F4801F01D045EA04064FF06D
:1027B800B0442660646822404E6816F4001F01D0B9
:1027C80045EA04024FF0B044626001330F2B00F277
:1027D800A58001229A400C6804EA0205AA42F4D1B5
:1027E8004C68122C18BF022C10D1DE08083650F89D
:1027F80026C003F00704A7000F24BC402CEA040CF1
:102808000C69BC4044EA0C0440F8264004685F00A8
:102818000326BE40F64306EA040C4C6804F00304A1
:10282800BC4044EA0C0404604C6804F1FF3C112CE1
:1028380018BFBCF1010F01D9122C11D1846806EA26
:10284800040CCC68BC4044EA0C048460446824EA64
:10285800020C4C68C4F300129A4042EA0C0242602F
:10286800C26816408A68BA403243C2604A6812F0A9
:10287800805FAAD02D4AD2F8F44044F00204C2F88E
:10288800F440D2F8F42002F002020192019A9C0866
:10289800A61C244A52F8267003F0030296000F2261
:1028A800B24027EA0207224A90423FF456AF02F5A7
:1028B8008062904222D002F58062904220D002F5D8
:1028C800806290421ED002F5806290421CD002F5D0
:1028D800806290421AD002F58062904218D002F5C8
:1028E8008062904216D002F58062904214D002F5C0
:1028F800806290423FF42FAF0A222FE701222DE792
:1029080002222BE7032229E7042227E7052225E7ED
:10291800062223E7072221E708221FE702B0F0BCBE
:10292800704770470004005880000058004402585F
:10293800000002580AB10183704741837047436918
:10294800594041617047000010B504460E4B187895
:102958004FF47A73B3FBF0F30C4A1068B0FBF3F052
:10296800FEF7F2FB68B90F2C01D901200AE000221A
:1029780021464FF0FF30FEF7B5FB054B1C600020E9
:1029880000E0012010BD00BF00000020080000206A
:102998000400002010B50320FEF792FB0020FFF78B
:1029A800D3FF10B10124204610BD0446FDF73CFEBC
:1029B800F9E70000034B1B78034A11680B441360C6
:1029C800704700BF0000002028000020014B186855
:1029D800704700BF2800002038B50446FFF7F6FF0F
:1029E8000546B4F1FF3F02D0044B1B781C44FFF7A7
:1029F800EDFF401BA042FAD338BD00BF0000002005
:102A080010B41549D1F8883043F47003C1F8883000
:102A1800124B1A6842F001021A6000221A611C68FF
:102A28000F48204018609A61DA611A629A62DA6285
:102A38001A635A639A63DA631A645A64186820F44A
:102A4800802018601A66074B01221A604FF0006355
:102A58008B605DF8044B704700ED00E000440258BD
:102A68007FEDF6EA08810051DFF834D0002103E059
:102A78000C4B5B58435004310B480C4B42189A429C
:102A8800F6D30B4A02E0002342F8043B094B9A4272
:102A9800F9D3FFF7B5FF00F011F8FDF7A3FC704775
:102AA80000000220602B0008000000200C0000201D
:102AB8000C000020A4000020FEE7000070B50D4DBA
:102AC8000D4C641BA4100026A64209D10B4D0C4CDA
:102AD80000F018F8641BA4100026A64205D170BDAA
:102AE80055F8043B98470136EEE755F8043B9847FC
:102AF8000136F2E7582B0008582B0008582B00081D
:102B08005C2B0008F8B500BFF8BC08BC9E467047AF
:0C2B1800F8B500BFF8BC08BC9E46704732
:102B24005372632F6D61696E2E6300005372632FBD
:102B34006164632E630000005372632F6461632E2B
:102B4400630000000000000001020304010203040A
:042B5400060708095F
:042B5800BD020008B2
:042B5C0099020008D2
:0C2B600001000000100000000090D003F5
:0400000508002A7154
:00000001FF
